{
  "contractName": "kyc",
  "abi": [
    {
      "inputs": [],
      "stateMutability": "nonpayable",
      "type": "constructor"
    },
    {
      "inputs": [],
      "name": "admin",
      "outputs": [
        {
          "internalType": "address",
          "name": "",
          "type": "address"
        }
      ],
      "stateMutability": "view",
      "type": "function"
    },
    {
      "inputs": [
        {
          "internalType": "address",
          "name": "",
          "type": "address"
        }
      ],
      "name": "bankList",
      "outputs": [
        {
          "internalType": "string",
          "name": "name",
          "type": "string"
        },
        {
          "internalType": "address",
          "name": "ethAddress",
          "type": "address"
        },
        {
          "internalType": "uint256",
          "name": "report",
          "type": "uint256"
        },
        {
          "internalType": "uint256",
          "name": "kycCount",
          "type": "uint256"
        },
        {
          "internalType": "bool",
          "name": "kycPermission",
          "type": "bool"
        },
        {
          "internalType": "string",
          "name": "regNumber",
          "type": "string"
        },
        {
          "internalType": "bool",
          "name": "exists",
          "type": "bool"
        }
      ],
      "stateMutability": "view",
      "type": "function"
    },
    {
      "inputs": [
        {
          "internalType": "string",
          "name": "",
          "type": "string"
        }
      ],
      "name": "customerlist",
      "outputs": [
        {
          "internalType": "string",
          "name": "username",
          "type": "string"
        },
        {
          "internalType": "string",
          "name": "data",
          "type": "string"
        },
        {
          "internalType": "bool",
          "name": "exists",
          "type": "bool"
        },
        {
          "internalType": "bool",
          "name": "kycStatus",
          "type": "bool"
        },
        {
          "internalType": "uint256",
          "name": "upvotes",
          "type": "uint256"
        },
        {
          "internalType": "uint256",
          "name": "downVotes",
          "type": "uint256"
        },
        {
          "internalType": "address",
          "name": "bank",
          "type": "address"
        }
      ],
      "stateMutability": "view",
      "type": "function"
    },
    {
      "inputs": [
        {
          "internalType": "string",
          "name": "",
          "type": "string"
        },
        {
          "internalType": "uint256",
          "name": "",
          "type": "uint256"
        }
      ],
      "name": "requestList",
      "outputs": [
        {
          "internalType": "string",
          "name": "username",
          "type": "string"
        },
        {
          "internalType": "address",
          "name": "bankAddress",
          "type": "address"
        },
        {
          "internalType": "string",
          "name": "customerData",
          "type": "string"
        }
      ],
      "stateMutability": "view",
      "type": "function"
    },
    {
      "inputs": [
        {
          "internalType": "string",
          "name": "name",
          "type": "string"
        },
        {
          "internalType": "address",
          "name": "ethAddress",
          "type": "address"
        },
        {
          "internalType": "string",
          "name": "regNumber",
          "type": "string"
        }
      ],
      "name": "addBank",
      "outputs": [],
      "stateMutability": "payable",
      "type": "function"
    },
    {
      "inputs": [
        {
          "internalType": "address",
          "name": "ethAddress",
          "type": "address"
        }
      ],
      "name": "modifyKycPermission",
      "outputs": [],
      "stateMutability": "payable",
      "type": "function"
    },
    {
      "inputs": [
        {
          "internalType": "address",
          "name": "ethAddress",
          "type": "address"
        }
      ],
      "name": "removeBank",
      "outputs": [],
      "stateMutability": "payable",
      "type": "function"
    },
    {
      "inputs": [
        {
          "internalType": "string",
          "name": "username",
          "type": "string"
        },
        {
          "internalType": "string",
          "name": "data",
          "type": "string"
        }
      ],
      "name": "addKYCRequest",
      "outputs": [],
      "stateMutability": "payable",
      "type": "function"
    },
    {
      "inputs": [
        {
          "internalType": "string",
          "name": "username",
          "type": "string"
        }
      ],
      "name": "removeKYCRequest",
      "outputs": [
        {
          "internalType": "uint256",
          "name": "",
          "type": "uint256"
        }
      ],
      "stateMutability": "payable",
      "type": "function"
    },
    {
      "inputs": [
        {
          "internalType": "string",
          "name": "username",
          "type": "string"
        }
      ],
      "name": "upvoteCustomer",
      "outputs": [],
      "stateMutability": "payable",
      "type": "function"
    },
    {
      "inputs": [
        {
          "internalType": "string",
          "name": "username",
          "type": "string"
        }
      ],
      "name": "downvoteCustomer",
      "outputs": [],
      "stateMutability": "payable",
      "type": "function"
    },
    {
      "inputs": [
        {
          "internalType": "address",
          "name": "ethAddress",
          "type": "address"
        }
      ],
      "name": "getBankReports",
      "outputs": [
        {
          "internalType": "uint256",
          "name": "",
          "type": "uint256"
        }
      ],
      "stateMutability": "view",
      "type": "function"
    },
    {
      "inputs": [
        {
          "internalType": "string",
          "name": "username",
          "type": "string"
        }
      ],
      "name": "getCustomerStatus",
      "outputs": [
        {
          "internalType": "bool",
          "name": "",
          "type": "bool"
        }
      ],
      "stateMutability": "view",
      "type": "function"
    },
    {
      "inputs": [
        {
          "internalType": "address",
          "name": "ethAddress",
          "type": "address"
        }
      ],
      "name": "getBankDetails",
      "outputs": [
        {
          "internalType": "string",
          "name": "",
          "type": "string"
        },
        {
          "internalType": "uint256",
          "name": "",
          "type": "uint256"
        },
        {
          "internalType": "uint256",
          "name": "",
          "type": "uint256"
        },
        {
          "internalType": "bool",
          "name": "",
          "type": "bool"
        },
        {
          "internalType": "string",
          "name": "",
          "type": "string"
        }
      ],
      "stateMutability": "payable",
      "type": "function"
    },
    {
      "inputs": [
        {
          "internalType": "string",
          "name": "username",
          "type": "string"
        },
        {
          "internalType": "string",
          "name": "data",
          "type": "string"
        }
      ],
      "name": "addCustomer",
      "outputs": [
        {
          "internalType": "uint256",
          "name": "",
          "type": "uint256"
        }
      ],
      "stateMutability": "payable",
      "type": "function"
    },
    {
      "inputs": [
        {
          "internalType": "string",
          "name": "username",
          "type": "string"
        }
      ],
      "name": "removeCustomer",
      "outputs": [
        {
          "internalType": "int256",
          "name": "",
          "type": "int256"
        }
      ],
      "stateMutability": "payable",
      "type": "function"
    },
    {
      "inputs": [
        {
          "internalType": "string",
          "name": "username",
          "type": "string"
        },
        {
          "internalType": "string",
          "name": "data",
          "type": "string"
        }
      ],
      "name": "modifyCustomer",
      "outputs": [
        {
          "internalType": "uint256",
          "name": "",
          "type": "uint256"
        }
      ],
      "stateMutability": "payable",
      "type": "function"
    },
    {
      "inputs": [
        {
          "internalType": "string",
          "name": "username",
          "type": "string"
        }
      ],
      "name": "viewCustomer",
      "outputs": [
        {
          "internalType": "string",
          "name": "",
          "type": "string"
        }
      ],
      "stateMutability": "payable",
      "type": "function"
    },
    {
      "inputs": [
        {
          "internalType": "string",
          "name": "uname",
          "type": "string"
        }
      ],
      "name": "updateCustomerKYCStatus",
      "outputs": [],
      "stateMutability": "payable",
      "type": "function"
    },
    {
      "inputs": [
        {
          "internalType": "string",
          "name": "a",
          "type": "string"
        },
        {
          "internalType": "string",
          "name": "b",
          "type": "string"
        }
      ],
      "name": "compareStrings",
      "outputs": [
        {
          "internalType": "bool",
          "name": "",
          "type": "bool"
        }
      ],
      "stateMutability": "pure",
      "type": "function"
    }
  ],
  "bytecode": "0x608060405234801561001057600080fd5b50336000806101000a81548173ffffffffffffffffffffffffffffffffffffffff021916908373ffffffffffffffffffffffffffffffffffffffff160217905550613a2b806100606000396000f3fe60806040526004361061011f5760003560e01c8063bed34bba116100a0578063f18c33d511610064578063f18c33d5146111e8578063f2f4ed8f146112c8578063f72860ca14611383578063f851a440146114e9578063fc55ea9d146115405761011f565b8063bed34bba14610c73578063ccfa8e7114610dea578063d0e5706714610f5c578063d2b08b0814610fa0578063e04cf48b1461112d5761011f565b80633190abc0116100e75780633190abc0146106b85780637d38d7111461081e578063850acd98146108d95780639649650c14610add578063bd561e1414610b215761011f565b8063107925bb1461012457806313f59eb11461025857806315101e02146104425780631e8eba6e14610584578063270b455414610653575b600080fd5b6101dd6004803603602081101561013a57600080fd5b810190808035906020019064010000000081111561015757600080fd5b82018360208201111561016957600080fd5b8035906020019184600183028401116401000000008311171561018b57600080fd5b91908080601f016020809104026020016040519081016040528093929190818152602001838380828437600081840152601f19601f82011690508083019250505050505050919291929050505061160f565b6040518080602001828103825283818151815260200191508051906020019080838360005b8381101561021d578082015181840152602081019050610202565b50505050905090810190601f16801561024a5780820380516001836020036101000a031916815260200191505b509250505060405180910390f35b34801561026457600080fd5b506103286004803603604081101561027b57600080fd5b810190808035906020019064010000000081111561029857600080fd5b8201836020820111156102aa57600080fd5b803590602001918460018302840111640100000000831117156102cc57600080fd5b91908080601f016020809104026020016040519081016040528093929190818152602001838380828437600081840152601f19601f82011690508083019250505050505050919291929080359060200190929190505050611832565b60405180806020018473ffffffffffffffffffffffffffffffffffffffff1673ffffffffffffffffffffffffffffffffffffffff16815260200180602001838103835286818151815260200191508051906020019080838360005b8381101561039e578082015181840152602081019050610383565b50505050905090810190601f1680156103cb5780820380516001836020036101000a031916815260200191505b50838103825284818151815260200191508051906020019080838360005b838110156104045780820151818401526020810190506103e9565b50505050905090810190601f1680156104315780820380516001836020036101000a031916815260200191505b509550505050505060405180910390f35b6104846004803603602081101561045857600080fd5b81019080803573ffffffffffffffffffffffffffffffffffffffff1690602001909291905050506119dc565b60405180806020018681526020018581526020018415151515815260200180602001838103835288818151815260200191508051906020019080838360005b838110156104de5780820151818401526020810190506104c3565b50505050905090810190601f16801561050b5780820380516001836020036101000a031916815260200191505b50838103825284818151815260200191508051906020019080838360005b83811015610544578082015181840152602081019050610529565b50505050905090810190601f1680156105715780820380516001836020036101000a031916815260200191505b5097505050505050505060405180910390f35b61063d6004803603602081101561059a57600080fd5b81019080803590602001906401000000008111156105b757600080fd5b8201836020820111156105c957600080fd5b803590602001918460018302840111640100000000831117156105eb57600080fd5b91908080601f016020809104026020016040519081016040528093929190818152602001838380828437600081840152601f19601f820116905080830192505050505050509192919290505050611ce5565b6040518082815260200191505060405180910390f35b34801561065f57600080fd5b506106a26004803603602081101561067657600080fd5b81019080803573ffffffffffffffffffffffffffffffffffffffff169060200190929190505050611dc3565b6040518082815260200191505060405180910390f35b610808600480360360408110156106ce57600080fd5b81019080803590602001906401000000008111156106eb57600080fd5b8201836020820111156106fd57600080fd5b8035906020019184600183028401116401000000008311171561071f57600080fd5b91908080601f016020809104026020016040519081016040528093929190818152602001838380828437600081840152601f19601f8201169050808301925050505050505091929192908035906020019064010000000081111561078257600080fd5b82018360208201111561079457600080fd5b803590602001918460018302840111640100000000831117156107b657600080fd5b91908080601f016020809104026020016040519081016040528093929190818152602001838380828437600081840152601f19601f820116905080830192505050505050509192919290505050611e6e565b6040518082815260200191505060405180910390f35b6108d76004803603602081101561083457600080fd5b810190808035906020019064010000000081111561085157600080fd5b82018360208201111561086357600080fd5b8035906020019184600183028401116401000000008311171561088557600080fd5b91908080601f016020809104026020016040519081016040528093929190818152602001838380828437600081840152601f19601f8201169050808301925050505050505091929192905050506120fa565b005b3480156108e557600080fd5b5061099f600480360360208110156108fc57600080fd5b810190808035906020019064010000000081111561091957600080fd5b82018360208201111561092b57600080fd5b8035906020019184600183028401116401000000008311171561094d57600080fd5b91908080601f016020809104026020016040519081016040528093929190818152602001838380828437600081840152601f19601f8201169050808301925050505050505091929192905050506122a4565b60405180806020018060200188151515158152602001871515151581526020018681526020018581526020018473ffffffffffffffffffffffffffffffffffffffff1673ffffffffffffffffffffffffffffffffffffffff16815260200183810383528a818151815260200191508051906020019080838360005b83811015610a35578082015181840152602081019050610a1a565b50505050905090810190601f168015610a625780820380516001836020036101000a031916815260200191505b50838103825289818151815260200191508051906020019080838360005b83811015610a9b578082015181840152602081019050610a80565b50505050905090810190601f168015610ac85780820380516001836020036101000a031916815260200191505b50995050505050505050505060405180910390f35b610b1f60048036036020811015610af357600080fd5b81019080803573ffffffffffffffffffffffffffffffffffffffff169060200190929190505050612466565b005b610c7160048036036040811015610b3757600080fd5b8101908080359060200190640100000000811115610b5457600080fd5b820183602082011115610b6657600080fd5b80359060200191846001830284011164010000000083111715610b8857600080fd5b91908080601f016020809104026020016040519081016040528093929190818152602001838380828437600081840152601f19601f82011690508083019250505050505050919291929080359060200190640100000000811115610beb57600080fd5b820183602082011115610bfd57600080fd5b80359060200191846001830284011164010000000083111715610c1f57600080fd5b91908080601f016020809104026020016040519081016040528093929190818152602001838380828437600081840152601f19601f820116905080830192505050505050509192919290505050612596565b005b348015610c7f57600080fd5b50610dd060048036036040811015610c9657600080fd5b8101908080359060200190640100000000811115610cb357600080fd5b820183602082011115610cc557600080fd5b80359060200191846001830284011164010000000083111715610ce757600080fd5b91908080601f016020809104026020016040519081016040528093929190818152602001838380828437600081840152601f19601f82011690508083019250505050505050919291929080359060200190640100000000811115610d4a57600080fd5b820183602082011115610d5c57600080fd5b80359060200191846001830284011164010000000083111715610d7e57600080fd5b91908080601f016020809104026020016040519081016040528093929190818152602001838380828437600081840152601f19601f82011690508083019250505050505050919291929050505061280f565b604051808215151515815260200191505060405180910390f35b610f5a60048036036060811015610e0057600080fd5b8101908080359060200190640100000000811115610e1d57600080fd5b820183602082011115610e2f57600080fd5b80359060200191846001830284011164010000000083111715610e5157600080fd5b91908080601f016020809104026020016040519081016040528093929190818152602001838380828437600081840152601f19601f820116905080830192505050505050509192919290803573ffffffffffffffffffffffffffffffffffffffff16906020019092919080359060200190640100000000811115610ed457600080fd5b820183602082011115610ee657600080fd5b80359060200191846001830284011164010000000083111715610f0857600080fd5b91908080601f016020809104026020016040519081016040528093929190818152602001838380828437600081840152601f19601f8201169050808301925050505050505091929192905050506128fe565b005b610f9e60048036036020811015610f7257600080fd5b81019080803573ffffffffffffffffffffffffffffffffffffffff169060200190929190505050612ad6565b005b348015610fac57600080fd5b50610fef60048036036020811015610fc357600080fd5b81019080803573ffffffffffffffffffffffffffffffffffffffff169060200190929190505050612b94565b60405180806020018873ffffffffffffffffffffffffffffffffffffffff1673ffffffffffffffffffffffffffffffffffffffff16815260200187815260200186815260200185151515158152602001806020018415151515815260200183810383528a818151815260200191508051906020019080838360005b8381101561108557808201518184015260208101905061106a565b50505050905090810190601f1680156110b25780820380516001836020036101000a031916815260200191505b50838103825285818151815260200191508051906020019080838360005b838110156110eb5780820151818401526020810190506110d0565b50505050905090810190601f1680156111185780820380516001836020036101000a031916815260200191505b50995050505050505050505060405180910390f35b6111e66004803603602081101561114357600080fd5b810190808035906020019064010000000081111561116057600080fd5b82018360208201111561117257600080fd5b8035906020019184600183028401116401000000008311171561119457600080fd5b91908080601f016020809104026020016040519081016040528093929190818152602001838380828437600081840152601f19601f820116905080830192505050505050509192919290505050612d40565b005b3480156111f457600080fd5b506112ae6004803603602081101561120b57600080fd5b810190808035906020019064010000000081111561122857600080fd5b82018360208201111561123a57600080fd5b8035906020019184600183028401116401000000008311171561125c57600080fd5b91908080601f016020809104026020016040519081016040528093929190818152602001838380828437600081840152601f19601f820116905080830192505050505050509192919290505050613044565b604051808215151515815260200191505060405180910390f35b611381600480360360208110156112de57600080fd5b81019080803590602001906401000000008111156112fb57600080fd5b82018360208201111561130d57600080fd5b8035906020019184600183028401116401000000008311171561132f57600080fd5b91908080601f016020809104026020016040519081016040528093929190818152602001838380828437600081840152601f19601f820116905080830192505050505050509192919290505050613126565b005b6114d36004803603604081101561139957600080fd5b81019080803590602001906401000000008111156113b657600080fd5b8201836020820111156113c857600080fd5b803590602001918460018302840111640100000000831117156113ea57600080fd5b91908080601f016020809104026020016040519081016040528093929190818152602001838380828437600081840152601f19601f8201169050808301925050505050505091929192908035906020019064010000000081111561144d57600080fd5b82018360208201111561145f57600080fd5b8035906020019184600183028401116401000000008311171561148157600080fd5b91908080601f016020809104026020016040519081016040528093929190818152602001838380828437600081840152601f19601f820116905080830192505050505050509192919290505050613253565b6040518082815260200191505060405180910390f35b3480156114f557600080fd5b506114fe6134a2565b604051808273ffffffffffffffffffffffffffffffffffffffff1673ffffffffffffffffffffffffffffffffffffffff16815260200191505060405180910390f35b6115f96004803603602081101561155657600080fd5b810190808035906020019064010000000081111561157357600080fd5b82018360208201111561158557600080fd5b803590602001918460018302840111640100000000831117156115a757600080fd5b91908080601f016020809104026020016040519081016040528093929190818152602001838380828437600081840152601f19601f8201169050808301925050505050505091929192905050506134c7565b6040518082815260200191505060405180910390f35b6060600360003373ffffffffffffffffffffffffffffffffffffffff1673ffffffffffffffffffffffffffffffffffffffff16815260200190815260200160002060060160009054906101000a900460ff1680156116e357506001826040518082805190602001908083835b6020831061169e578051825260208201915060208101905060208303925061167b565b6001836020036101000a038019825116818451168082178552505050505050905001915050908152602001604051809103902060020160009054906101000a900460ff165b156117f4576001826040518082805190602001908083835b6020831061171e57805182526020820191506020810190506020830392506116fb565b6001836020036101000a03801982511681845116808217855250505050505090500191505090815260200160405180910390206001018054600181600116156101000203166002900480601f0160208091040260200160405190810160405280929190818152602001828054600181600116156101000203166002900480156117e85780601f106117bd576101008083540402835291602001916117e8565b820191906000526020600020905b8154815290600101906020018083116117cb57829003601f168201915b5050505050905061182d565b6040518060400160405280601781526020017f437573746f6d657220646f6573206e6f7420657869737400000000000000000081525090505b919050565b600282805160208101820180518482526020830160208501208183528095505050505050818154811061186157fe5b906000526020600020906003020160009150915050806000018054600181600116156101000203166002900480601f01602080910402602001604051908101604052809291908181526020018280546001816001161561010002031660029004801561190e5780601f106118e35761010080835404028352916020019161190e565b820191906000526020600020905b8154815290600101906020018083116118f157829003601f168201915b5050505050908060010160009054906101000a900473ffffffffffffffffffffffffffffffffffffffff1690806002018054600181600116156101000203166002900480601f0160208091040260200160405190810160405280929190818152602001828054600181600116156101000203166002900480156119d25780601f106119a7576101008083540402835291602001916119d2565b820191906000526020600020905b8154815290600101906020018083116119b557829003601f168201915b5050505050905083565b606060008060006060600360003373ffffffffffffffffffffffffffffffffffffffff1673ffffffffffffffffffffffffffffffffffffffff16815260200190815260200160002060060160009054906101000a900460ff1615611cdb57600360008773ffffffffffffffffffffffffffffffffffffffff1673ffffffffffffffffffffffffffffffffffffffff168152602001908152602001600020600001600360008873ffffffffffffffffffffffffffffffffffffffff1673ffffffffffffffffffffffffffffffffffffffff16815260200190815260200160002060020154600360008973ffffffffffffffffffffffffffffffffffffffff1673ffffffffffffffffffffffffffffffffffffffff16815260200190815260200160002060030154600360008a73ffffffffffffffffffffffffffffffffffffffff1673ffffffffffffffffffffffffffffffffffffffff16815260200190815260200160002060040160009054906101000a900460ff16600360008b73ffffffffffffffffffffffffffffffffffffffff1673ffffffffffffffffffffffffffffffffffffffff168152602001908152602001600020600501848054600181600116156101000203166002900480601f016020809104026020016040519081016040528092919081815260200182805460018160011615610100020316600290048015611c295780601f10611bfe57610100808354040283529160200191611c29565b820191906000526020600020905b815481529060010190602001808311611c0c57829003601f168201915b50505050509450808054600181600116156101000203166002900480601f016020809104026020016040519081016040528092919081815260200182805460018160011615610100020316600290048015611cc55780601f10611c9a57610100808354040283529160200191611cc5565b820191906000526020600020905b815481529060010190602001808311611ca857829003601f168201915b5050505050905094509450945094509450611cdc565b5b91939590929450565b6000600360003373ffffffffffffffffffffffffffffffffffffffff1673ffffffffffffffffffffffffffffffffffffffff16815260200190815260200160002060040160009054906101000a900460ff16611db9576002826040518082805190602001908083835b60208310611d715780518252602082019150602081019050602083039250611d4e565b6001836020036101000a03801982511681845116808217855250505050505090500191505090815260200160405180910390206000611db091906137fe565b60009050611dbe565b600190505b919050565b6000600360003373ffffffffffffffffffffffffffffffffffffffff1673ffffffffffffffffffffffffffffffffffffffff16815260200190815260200160002060060160009054906101000a900460ff1615611e6457600360008373ffffffffffffffffffffffffffffffffffffffff1673ffffffffffffffffffffffffffffffffffffffff168152602001908152602001600020600201549050611e69565b600090505b919050565b6000600360003373ffffffffffffffffffffffffffffffffffffffff1673ffffffffffffffffffffffffffffffffffffffff16815260200190815260200160002060060160009054906101000a900460ff16611ecd57600190506120f4565b6001836040518082805190602001908083835b60208310611f035780518252602082019150602081019050602083039250611ee0565b6001836020036101000a038019825116818451168082178552505050505050905001915050908152602001604051809103902060020160009054906101000a900460ff166120ef576040518060e0016040528084815260200183815260200160011515815260200160001515815260200160008152602001600081526020013373ffffffffffffffffffffffffffffffffffffffff168152506001846040518082805190602001908083835b60208310611fd25780518252602082019150602081019050602083039250611faf565b6001836020036101000a03801982511681845116808217855250505050505090500191505090815260200160405180910390206000820151816000019080519060200190612021929190613822565b50602082015181600101908051906020019061203e929190613822565b5060408201518160020160006101000a81548160ff02191690831515021790555060608201518160020160016101000a81548160ff0219169083151502179055506080820151816003015560a0820151816004015560c08201518160050160006101000a81548173ffffffffffffffffffffffffffffffffffffffff021916908373ffffffffffffffffffffffffffffffffffffffff1602179055509050506120e683612d40565b600090506120f4565b600190505b92915050565b600360003373ffffffffffffffffffffffffffffffffffffffff1673ffffffffffffffffffffffffffffffffffffffff16815260200190815260200160002060060160009054906101000a900460ff1680156121a25750600360003373ffffffffffffffffffffffffffffffffffffffff1673ffffffffffffffffffffffffffffffffffffffff16815260200190815260200160002060040160009054906101000a900460ff165b156122a15760006001826040518082805190602001908083835b602083106121df57805182526020820191506020810190506020830392506121bc565b6001836020036101000a0380198251168184511680821785525050505050509050019150509081526020016040518091039020600401541161222257600061229f565b6001816040518082805190602001908083835b602083106122585780518252602082019150602081019050602083039250612235565b6001836020036101000a0380198251168184511680821785525050505050509050019150509081526020016040518091039020600401600081548092919060019003919050555b505b50565b600181805160208101820180518482526020830160208501208183528095505050505050600091509050806000018054600181600116156101000203166002900480601f0160208091040260200160405190810160405280929190818152602001828054600181600116156101000203166002900480156123665780601f1061233b57610100808354040283529160200191612366565b820191906000526020600020905b81548152906001019060200180831161234957829003601f168201915b505050505090806001018054600181600116156101000203166002900480601f0160208091040260200160405190810160405280929190818152602001828054600181600116156101000203166002900480156124045780601f106123d957610100808354040283529160200191612404565b820191906000526020600020905b8154815290600101906020018083116123e757829003601f168201915b5050505050908060020160009054906101000a900460ff16908060020160019054906101000a900460ff16908060030154908060040154908060050160009054906101000a900473ffffffffffffffffffffffffffffffffffffffff16905087565b6000809054906101000a900473ffffffffffffffffffffffffffffffffffffffff1673ffffffffffffffffffffffffffffffffffffffff163373ffffffffffffffffffffffffffffffffffffffff16146124bf57600080fd5b600360008273ffffffffffffffffffffffffffffffffffffffff1673ffffffffffffffffffffffffffffffffffffffff1681526020019081526020016000206000808201600061250f91906138a2565b6001820160006101000a81549073ffffffffffffffffffffffffffffffffffffffff0219169055600282016000905560038201600090556004820160006101000a81549060ff021916905560058201600061256a91906138a2565b6006820160006101000a81549060ff021916905550506004600081548092919060019003919050555050565b6001826040518082805190602001908083835b602083106125cc57805182526020820191506020810190506020830392506125a9565b6001836020036101000a038019825116818451168082178552505050505050905001915050908152602001604051809103902060020160009054906101000a900460ff1615806126695750600360003373ffffffffffffffffffffffffffffffffffffffff1673ffffffffffffffffffffffffffffffffffffffff16815260200190815260200160002060040160009054906101000a900460ff16155b156126735761280b565b6001600360003373ffffffffffffffffffffffffffffffffffffffff1673ffffffffffffffffffffffffffffffffffffffff168152602001908152602001600020600301600082825401925050819055506002826040518082805190602001908083835b602083106126fa57805182526020820191506020810190506020830392506126d7565b6001836020036101000a038019825116818451168082178552505050505050905001915050908152602001604051809103902060405180606001604052808481526020013373ffffffffffffffffffffffffffffffffffffffff16815260200183815250908060018154018082558091505060019003906000526020600020906003020160009091909190915060008201518160000190805190602001906127a3929190613822565b5060208201518160010160006101000a81548173ffffffffffffffffffffffffffffffffffffffff021916908373ffffffffffffffffffffffffffffffffffffffff1602179055506040820151816002019080519060200190612807929190613822565b5050505b5050565b6000816040516020018082805190602001908083835b602083106128485780518252602082019150602081019050602083039250612825565b6001836020036101000a03801982511681845116808217855250505050505090500191505060405160208183030381529060405280519060200120836040516020018082805190602001908083835b602083106128ba5780518252602082019150602081019050602083039250612897565b6001836020036101000a0380198251168184511680821785525050505050509050019150506040516020818303038152906040528051906020012014905092915050565b6000809054906101000a900473ffffffffffffffffffffffffffffffffffffffff1673ffffffffffffffffffffffffffffffffffffffff163373ffffffffffffffffffffffffffffffffffffffff161461295757600080fd5b6040518060e001604052808481526020018373ffffffffffffffffffffffffffffffffffffffff168152602001600081526020016000815260200160011515815260200182815260200160011515815250600360008473ffffffffffffffffffffffffffffffffffffffff1673ffffffffffffffffffffffffffffffffffffffff1681526020019081526020016000206000820151816000019080519060200190612a03929190613822565b5060208201518160010160006101000a81548173ffffffffffffffffffffffffffffffffffffffff021916908373ffffffffffffffffffffffffffffffffffffffff160217905550604082015181600201556060820151816003015560808201518160040160006101000a81548160ff02191690831515021790555060a0820151816005019080519060200190612a9b929190613822565b5060c08201518160060160006101000a81548160ff021916908315150217905550905050600460008154809291906001019190505550505050565b6000809054906101000a900473ffffffffffffffffffffffffffffffffffffffff1673ffffffffffffffffffffffffffffffffffffffff163373ffffffffffffffffffffffffffffffffffffffff1614612b2f57600080fd5b612b3881613787565b600360008373ffffffffffffffffffffffffffffffffffffffff1673ffffffffffffffffffffffffffffffffffffffff16815260200190815260200160002060040160006101000a81548160ff02191690831515021790555050565b6003602052806000526040600020600091509050806000018054600181600116156101000203166002900480601f016020809104026020016040519081016040528092919081815260200182805460018160011615610100020316600290048015612c405780601f10612c1557610100808354040283529160200191612c40565b820191906000526020600020905b815481529060010190602001808311612c2357829003601f168201915b5050505050908060010160009054906101000a900473ffffffffffffffffffffffffffffffffffffffff16908060020154908060030154908060040160009054906101000a900460ff1690806005018054600181600116156101000203166002900480601f016020809104026020016040519081016040528092919081815260200182805460018160011615610100020316600290048015612d235780601f10612cf857610100808354040283529160200191612d23565b820191906000526020600020905b815481529060010190602001808311612d0657829003601f168201915b5050505050908060060160009054906101000a900460ff16905087565b6001816040518082805190602001908083835b60208310612d765780518252602082019150602081019050602083039250612d53565b6001836020036101000a0380198251168184511680821785525050505050509050019150509081526020016040518091039020600401546001826040518082805190602001908083835b60208310612de35780518252602082019150602081019050602083039250612dc0565b6001836020036101000a0380198251168184511680821785525050505050509050019150509081526020016040518091039020600301541115612fbc5760056004541115612fbb57600360045481612e3757fe5b046001826040518082805190602001908083835b60208310612e6e5780518252602082019150602081019050602083039250612e4b565b6001836020036101000a0380198251168184511680821785525050505050509050019150509081526020016040518091039020600401541115612f355760006001826040518082805190602001908083835b60208310612ee35780518252602082019150602081019050602083039250612ec0565b6001836020036101000a038019825116818451168082178552505050505050905001915050908152602001604051809103902060020160016101000a81548160ff021916908315150217905550612fba565b600180826040518082805190602001908083835b60208310612f6c5780518252602082019150602081019050602083039250612f49565b6001836020036101000a038019825116818451168082178552505050505050905001915050908152602001604051809103902060020160016101000a81548160ff0219169083151502179055505b5b5b60006001826040518082805190602001908083835b60208310612ff45780518252602082019150602081019050602083039250612fd1565b6001836020036101000a038019825116818451168082178552505050505050905001915050908152602001604051809103902060020160016101000a81548160ff02191690831515021790555050565b6000600360003373ffffffffffffffffffffffffffffffffffffffff1673ffffffffffffffffffffffffffffffffffffffff16815260200190815260200160002060060160009054906101000a900460ff161561311c576001826040518082805190602001908083835b602083106130d157805182526020820191506020810190506020830392506130ae565b6001836020036101000a038019825116818451168082178552505050505050905001915050908152602001604051809103902060020160019054906101000a900460ff169050613121565b600090505b919050565b600360003373ffffffffffffffffffffffffffffffffffffffff1673ffffffffffffffffffffffffffffffffffffffff16815260200190815260200160002060060160009054906101000a900460ff1680156131ce5750600360003373ffffffffffffffffffffffffffffffffffffffff1673ffffffffffffffffffffffffffffffffffffffff16815260200190815260200160002060040160009054906101000a900460ff165b15613250576001816040518082805190602001908083835b6020831061320957805182526020820191506020810190506020830392506131e6565b6001836020036101000a0380198251168184511680821785525050505050509050019150509081526020016040518091039020600301600081548092919060010191905055505b50565b6000600360003373ffffffffffffffffffffffffffffffffffffffff1673ffffffffffffffffffffffffffffffffffffffff16815260200190815260200160002060060160009054906101000a900460ff16613497576001836040518082805190602001908083835b602083106132df57805182526020820191506020810190506020830392506132bc565b6001836020036101000a038019825116818451168082178552505050505050905001915050908152602001604051809103902060020160009054906101000a900460ff161561349657816001846040518082805190602001908083835b6020831061335f578051825260208201915060208101905060208303925061333c565b6001836020036101000a038019825116818451168082178552505050505050905001915050908152602001604051809103902060010190805190602001906133a89291906138ea565b5060006001846040518082805190602001908083835b602083106133e157805182526020820191506020810190506020830392506133be565b6001836020036101000a03801982511681845116808217855250505050505090500191505090815260200160405180910390206003018190555060006001846040518082805190602001908083835b602083106134535780518252602082019150602081019050602083039250613430565b6001836020036101000a0380198251168184511680821785525050505050509050019150509081526020016040518091039020600401819055506000905061349c565b5b600190505b92915050565b6000809054906101000a900473ffffffffffffffffffffffffffffffffffffffff1681565b6000600360003373ffffffffffffffffffffffffffffffffffffffff1673ffffffffffffffffffffffffffffffffffffffff16815260200190815260200160002060060160009054906101000a900460ff161561377d576001826040518082805190602001908083835b602083106135545780518252602082019150602081019050602083039250613531565b6001836020036101000a038019825116818451168082178552505050505050905001915050908152602001604051809103902060020160009054906101000a900460ff161561377c576001826040518082805190602001908083835b602083106135d357805182526020820191506020810190506020830392506135b0565b6001836020036101000a03801982511681845116808217855250505050505090500191505090815260200160405180910390206000808201600061361791906138a2565b60018201600061362791906138a2565b6002820160006101000a81549060ff02191690556002820160016101000a81549060ff0219169055600382016000905560048201600090556005820160006101000a81549073ffffffffffffffffffffffffffffffffffffffff0219169055505060006002836040518082805190602001908083835b602083106136c0578051825260208201915060208101905060208303925061369d565b6001836020036101000a0380198251168184511680821785525050505050509050019150509081526020016040518091039020805490501115613773576002826040518082805190602001908083835b602083106137335780518252602082019150602081019050602083039250613710565b6001836020036101000a0380198251168184511680821785525050505050509050019150509081526020016040518091039020600061377291906137fe565b5b60009050613782565b5b600190505b919050565b6000600560045411156137f4576003600454816137a057fe5b04600360008473ffffffffffffffffffffffffffffffffffffffff1673ffffffffffffffffffffffffffffffffffffffff1681526020019081526020016000206002015411156137f357600090506137f9565b5b600190505b919050565b508054600082556003029060005260206000209081019061381f919061396a565b50565b828054600181600116156101000203166002900490600052602060002090601f016020900481019282601f1061386357805160ff1916838001178555613891565b82800160010185558215613891579182015b82811115613890578251825591602001919060010190613875565b5b50905061389e91906139d0565b5090565b50805460018160011615610100020316600290046000825580601f106138c857506138e7565b601f0160209004906000526020600020908101906138e691906139d0565b5b50565b828054600181600116156101000203166002900490600052602060002090601f016020900481019282601f1061392b57805160ff1916838001178555613959565b82800160010185558215613959579182015b8281111561395857825182559160200191906001019061393d565b5b50905061396691906139d0565b5090565b6139cd91905b808211156139c9576000808201600061398991906138a2565b6001820160006101000a81549073ffffffffffffffffffffffffffffffffffffffff02191690556002820160006139c091906138a2565b50600301613970565b5090565b90565b6139f291905b808211156139ee5760008160009055506001016139d6565b5090565b9056fea2646970667358221220238d52d32c8315da884980cc1bbbff4f58f4988f121c0ba956b2ca6620d7324264736f6c63430006040033",
  "source": "pragma solidity ^0.6.4;\r\n\r\n\r\ncontract kyc {\r\n    address public admin;\r\n    uint256 constant MIN_BANKS_FOR_AUTHENTICITY_CHECKS = 5;\r\n\r\n    // The Sender Address which initializes the contract is the Admin\r\n    constructor() public {\r\n        admin = msg.sender;\r\n    }\r\n\r\n    /*Struct customer\r\n\tuname: username of the customer\r\n\tdata: customer data\r\n\trating: rating given to customer given based on regularity\r\n\tupvotes: number of upvotes received from banks\r\n\tbank: address of bank that validated the customer account\r\n\r\n\t*/\r\n    struct Customer {\r\n        string username;\r\n        string data;\r\n        // uint upvotes;\r\n        bool exists;\r\n        // string password;\r\n        bool kycStatus;\r\n        uint256 upvotes;\r\n        uint256 downVotes;\r\n        address bank;\r\n    }\r\n\r\n    /*  Struct Bank\r\n\tname: name of the Bank\r\n\tethAddress: address of the Bank\r\n\tregNumber: registration number for the bank.*/\r\n\r\n    struct Bank {\r\n        string name;\r\n        address ethAddress;\r\n        uint256 report;\r\n        uint256 kycCount;\r\n        bool kycPermission;\r\n        string regNumber;\r\n        bool exists;\r\n    }\r\n\r\n    struct Request {\r\n        string username;\r\n        address bankAddress;\r\n        string customerData;\r\n    }\r\n\r\n    // Customer List (Customer Name => Customer Data)\r\n    mapping(string => Customer) public customerlist;\r\n\r\n    // Request List (customer username => mutiple requests added for the same customer)\r\n    mapping(string => Request[]) public requestList;\r\n\r\n    // Bank List (Address of Bank => Bank Data)\r\n    mapping(address => Bank) public bankList;\r\n\r\n    // To keep track the total no of Banks Added\r\n    uint256 private totalBanks;\r\n\r\n    // Modifier to allow only admin execute a specific functionality\r\n    modifier onlyAdmin() {\r\n        require(msg.sender == admin);\r\n        _;\r\n    }\r\n\r\n    // Functionalities of Admin\r\n\r\n    function addBank(\r\n        string memory name,\r\n        address ethAddress,\r\n        string memory regNumber\r\n    ) public payable onlyAdmin {\r\n        bankList[ethAddress] = Bank(\r\n            name,\r\n            ethAddress,\r\n            0,\r\n            0,\r\n            true,\r\n            regNumber,\r\n            true\r\n        );\r\n        totalBanks++;\r\n    }\r\n\r\n    function modifyKycPermission(address ethAddress) public payable onlyAdmin {\r\n        bankList[ethAddress].kycPermission = corruptCheck(ethAddress);\r\n    }\r\n\r\n    function removeBank(address ethAddress) public payable onlyAdmin {\r\n        delete (bankList[ethAddress]);\r\n        totalBanks--;\r\n    }\r\n\r\n    // Functionalities of Banks\r\n\r\n    function addKYCRequest(string memory username, string memory data)\r\n        public\r\n        payable\r\n    {\r\n        // check if customer exists\r\n        // If kycPermission is set to false bank wont be allowed to add requests for any customer.\r\n        if (\r\n            !customerlist[username].exists ||\r\n            !bankList[msg.sender].kycPermission\r\n        ) return;\r\n        // increase the kyCount by 1 for bank initiating the requestList\r\n        bankList[msg.sender].kycCount += 1;\r\n        // add the kyc Request to requestList\r\n\r\n        requestList[username].push(Request(username, msg.sender, data));\r\n    }\r\n\r\n    function removeKYCRequest(string memory username)\r\n        public\r\n        payable\r\n        returns (uint256)\r\n    {\r\n        if (!bankList[msg.sender].kycPermission) {\r\n            delete (requestList[username]);\r\n            return 0;\r\n        }\r\n        return 1;\r\n    }\r\n\r\n    function upvoteCustomer(string memory username) public payable {\r\n        if (bankList[msg.sender].exists && bankList[msg.sender].kycPermission) {\r\n            customerlist[username].upvotes++;\r\n        }\r\n    }\r\n\r\n    function downvoteCustomer(string memory username) public payable {\r\n        if (bankList[msg.sender].exists && bankList[msg.sender].kycPermission) {\r\n            customerlist[username].downVotes > 0\r\n                ? customerlist[username].downVotes--\r\n                : 0;\r\n        }\r\n    }\r\n\r\n    function getBankReports(address ethAddress) public view returns (uint256) {\r\n        if (bankList[msg.sender].exists) {\r\n            return bankList[ethAddress].report;\r\n        }\r\n        return 0;\r\n    }\r\n\r\n    function getCustomerStatus(string memory username)\r\n        public\r\n        view\r\n        returns (bool)\r\n    {\r\n        if (bankList[msg.sender].exists) {\r\n            return customerlist[username].kycStatus;\r\n        }\r\n        return false;\r\n    }\r\n\r\n    function getBankDetails(address ethAddress)\r\n        public\r\n        payable\r\n        returns (string memory, uint256, uint256, bool, string memory)\r\n    {\r\n        if (bankList[msg.sender].exists) {\r\n            return (\r\n                bankList[ethAddress].name,\r\n                bankList[ethAddress].report,\r\n                bankList[ethAddress].kycCount,\r\n                bankList[ethAddress].kycPermission,\r\n                bankList[ethAddress].regNumber\r\n            );\r\n        }\r\n    }\r\n\r\n    function addCustomer(string memory username, string memory data)\r\n        public\r\n        payable\r\n        returns (uint256)\r\n    {\r\n        // Check if Bank Exists\r\n        if (!bankList[msg.sender].exists) {\r\n            return 1;\r\n        }\r\n        // check if customer exist\r\n        if (!customerlist[username].exists) {\r\n            customerlist[username] = Customer(\r\n                username,\r\n                data,\r\n                true,\r\n                false,\r\n                0,\r\n                0,\r\n                msg.sender\r\n            );\r\n            // Once customer is added, verify the downVotes and upvotes to decide on the kycStatus\r\n            updateCustomerKYCStatus(username);\r\n            return 0;\r\n        }\r\n        return 1;\r\n    }\r\n\r\n    function removeCustomer(string memory username)\r\n        public\r\n        payable\r\n        returns (int256)\r\n    {\r\n        if (bankList[msg.sender].exists) {\r\n            if (customerlist[username].exists) {\r\n                delete (customerlist[username]);\r\n                if (requestList[username].length > 0) {\r\n                    delete (requestList[username]);\r\n                }\r\n                return 0;\r\n            }\r\n        }\r\n        return 1;\r\n    }\r\n\r\n    function modifyCustomer(string memory username, string memory data)\r\n        public\r\n        payable\r\n        returns (uint256)\r\n    {\r\n        if (!bankList[msg.sender].exists) {\r\n            if (customerlist[username].exists) {\r\n                customerlist[username].data = data;\r\n                customerlist[username].upvotes = 0;\r\n                customerlist[username].downVotes = 0;\r\n                return 0;\r\n            }\r\n        }\r\n        return 1;\r\n    }\r\n\r\n    function viewCustomer(string memory username)\r\n        public\r\n        payable\r\n        returns (string memory)\r\n    {\r\n        if (bankList[msg.sender].exists && customerlist[username].exists) {\r\n            return customerlist[username].data;\r\n        }\r\n        return \"Customer does not exist\";\r\n    }\r\n\r\n    function updateCustomerKYCStatus(string memory uname) public payable {\r\n        if (customerlist[uname].upvotes > customerlist[uname].downVotes) {\r\n            if (totalBanks > MIN_BANKS_FOR_AUTHENTICITY_CHECKS) {\r\n                if (customerlist[uname].downVotes > (totalBanks / 3)) {\r\n                    customerlist[uname].kycStatus = false;\r\n                } else {\r\n                    customerlist[uname].kycStatus = true;\r\n                }\r\n            }\r\n        }\r\n        customerlist[uname].kycStatus = false;\r\n    }\r\n\r\n    function corruptCheck(address ethAddress) private view returns (bool) {\r\n        if (totalBanks > MIN_BANKS_FOR_AUTHENTICITY_CHECKS) {\r\n            if (bankList[ethAddress].report > (totalBanks / 3)) {\r\n                return false;\r\n            }\r\n        }\r\n        return true;\r\n    }\r\n\r\n    // Utility Functions\r\n    function compareStrings(string memory a, string memory b)\r\n        public\r\n        pure\r\n        returns (bool)\r\n    {\r\n        return (keccak256(abi.encodePacked((a))) ==\r\n            keccak256(abi.encodePacked((b))));\r\n    }\r\n}\r\n",
  "sourcePath": "C:\\Users\\ppodutwar\\Desktop\\Blk\\Truffle\\KYC\\contracts\\KYC.sol",
  "compiler": {
    "name": "solc",
    "version": "0.6.4+commit.1dca32f3.Emscripten.clang"
  },
  "schemaVersion": "3.0.23",
  "updatedAt": "2020-03-30T17:28:58.291Z",
  "devdoc": {
    "methods": {}
  },
  "userdoc": {
    "methods": {}
  }
}